S00B000042544C2E7372656337
S11300000C9434000C9451000C9451000C94510045
S11300100C9451000C9451000C9451000C94510018
S11300200C9451000C9451000C9451000C94510008
S11300300C9451000C9451000C9451000C945100F8
S11300400C9451000C9451000C9451000C945100E8
S11300500C9451000C9451000C9451000C945100D8
S11300600C9451000C94510011241FBECFEFD8E022
S1130070DEBFCDBF11E0A0E0B1E0E4E8FBE002C0E8
S113008005900D92AA33B107D9F721E0AAE3B1E0B4
S113009001C01D92AB33B207E1F70E94D4010C9466
S11300A0C0050C940000ECE7F0E08081806480835C
S11300B0EAE7F0E08081876880830895ECE7F0E068
S11300C09081907F8F70892B8083EAE7F0E08081B4
S11300D080648083808186FDFDCF209178008091AB
S11300E07900837090E0982F8827820F911D0895DE
S11300F09093C5008093C40088E98093C10086E092
S11301008093C2000895CF93DF93FC0120812223C2
S113011069F0DC011196E0ECF0E0C6ECD0E09081EF
S113012095FFFDCF28832D912111F9CFE0ECF0E06C
S1130130808185FFFDCF8AE08093C600E0ECF0E08B
S1130140808185FFFDCF8DE08093C600DF91CF9144
S113015008959BB19F70282F207F922B9BB95A98AA
S11301605B9A34E03A95F1F75B98E8E2F2E0319774
S1130170F1F700C000002BB12F70F0E18F9FC00198
S11301801124822B8BB95B9A34E03A95F1F75B9892
S113019089E995E10197F1F700C008958FEF8AB9D5
S11301A08FEF97ED0197F1F700C0000082E00E9405
S11301B0A90088E20E94A9008CE00E94A90086E0C0
S11301C00E94A90081E00E94A90080E80E94A90081
S11301D089E995E10197F1F700C0089581E00E9453
S11301E0A90089E995E10197F1F700C080E80E9430
S11301F0A9000895FC019081992341F12BB12F703E
S1130200907F922B9BB95A9A5B9A84E08A95F1F776
S11302105B9888E292E00197F1F700C000004BB1CF
S1130220919180E1989F90011124942F9F70292B24
S11302302BB95B9A94E09A95F1F75B9889E995E17B
S11302400197F1F700C090819111D8CF0895CF9212
S1130250DF92EF92FF920F931F93CF93DF9300D01F
S113026000D01F92CDB7DEB77C01219A299A2FEFD7
S11302708FE593E0215080409040E1F700C00000FA
S11302802998A6E6B2EC1197F1F70000299A219873
S1130290B3E9BA95F1F700C0199966C0EDEDF0E045
S11302A03197F1F7199B63C08DED90E00197F1F759
S11302B08E010F5F1F4F6E0196E0C90ED11CE1E065
S11302C0F0E02DC0915011F455C098ECA4E0AA952B
S11302D0F1F7199BF7CFBEE6BA95F1F700C0199B69
S11302E052C0DF01022E02C0AA0FBB1F0A94E2F71C
S11302F04A2B49C0915011F440C098EC84E08A958F
S1130300F1F71999F7CF2150310918F0199BDDCF76
S1130310E2CFD8014D938D01AC15BD0521F027E046
S113032030E040E0F3CF219A299ABFEFEFE5F3E004
S1130330B150E040F040E1F700C0000099812B810A
S11303408A81890F820F3C81830F3D81831318C0FA
S113035030E0D7012D933C93892F90E0FB019183EA
S1130360808380E090E012C08FEF9FEF0FC08EEF8C
S11303709FEF0CC08DEF9FEF09C08DEF9FEF06C07C
S11303808CEF9FEF03C01999B8CFBDCF0F900F909A
S11303900F900F900F90DF91CF911F910F91FF90CD
S11303A0EF90DF90CF900895CF93DF93CDB7DEB772
S11303B06C970FB6F894DEBF0FBECDBF78940E9441
S11303C0530087E490E00E9478000E94CE0084B13C
S11303D08C6184B980E090E00E9473054C0182E056
S11303E090E00E9473055C0184E090E00E94730534
S11303F06C01312C0F2EFDEC2F2EF02D0F2EF8E278
S11304004F2EF1E05F2EF02D8E010B5F1F4F0F2E4C
S1130410FEE26F2EF1E07F2EF02D339480913A01AD
S1130420882341F010923A010E94EE0080E091E0AE
S11304300E94FA00329C812D11248695869586951A
S1130440880F982F990F990F890F381261C085E092
S11304500E945E007C01BE016D5F7F4FCE0101965C
S11304600E942701009709F042C0FF92EF928C810D
S11304708F938B818F938A818F9389818F9384E06B
S113048091E09F938F931F930F930E94C002C80122
S11304900E9483000E94EE008C818F938B818F9346
S11304A08A818F9389818F938FE091E09F938F93BB
S11304B01F930F930E94C002C8010E94FA00FF928A
S11304C0EF92FF92EF928EE191E09F938F931F93AF
S11304D00F930E94C00280EC0E94A900C8010E94F0
S11304E0FA000FB6F894DEBF0FBECDBF11C09F93C4
S11304F08F935F924F921F930F930E94C002C80183
S11305000E9483000F900F900F900F900F900F9008
S113051096E39315A8F4DF92CF92BF92AF929F9285
S11305208F927F926F921F930F930E94C002C80113
S11305300E9483000FB6F894DEBF0FBECDBF312CEE
S113054089819A818816990614F42A9A01C02A98F6
S11305508B819C81A816B90614F42B9A01C02B98A0
S1130560EC14FD0414F42C9A01C02C989FEF2FE591
S113057083E0915020408040E1F700C000004DCF5F
S1130580AEE0B0E0E6ECF2E00C9497050D891E892C
S113059086E08C831A8309838FEF9FE79E838D8384
S11305A0AE01475E5F4F6F89788DCE0101960E9440
S11305B0E202EF81F885E00FF11F10822E96E4E04D
S11305C00C94B305ABE0B0E0E8EEF2E00C948905DE
S11305D06C017B018A01FC0117821682838181FFF1
S11305E0CCC1CE0101963C01F6019381F70193FD44
S11305F0859193FF81917F01882309F4BAC18532E3
S113060039F493FD859193FF81917F01853229F41B
S1130610B60190E00E94D904E7CF912C212C312C13
S1130620FFE1F315D8F08B3279F038F4803279F0A9
S11306308332A1F4232D20611DC08D3261F08033FB
S113064069F4232D216016C0832D8260382EE32D9A
S1130650E4603E2E2AC0F32DF8601DC037FC2DC087
S113066020ED280F2A3040F08E32B9F436FC81C1D7
S1130670232D2064322E19C036FE06C08AE0989ECF
S1130680200D1124922E11C0EAE02E9E200D11247B
S1130690222EF32DF0623F2E08C08C3621F4832DD8
S11306A08068382E02C0883641F4F70193FD8591A5
S11306B093FF81917F018111B3CF982F9F7D955432
S11306C0933028F40C5F1F4F9FE399830DC083364A
S11306D031F0833771F0833509F059C021C0F80136
S11306E0808189830E5F1F4F88248394912C53014A
S11306F013C02801F2E04F0E511CF801A080B18014
S113070036FE03C0692D70E002C06FEF7FEFC501B4
S11307100E94CE044C018201F32DFF773F2E16C0B8
S1130720280122E0420E511CF801A080B18036FE5F
S113073003C0692D70E002C06FEF7FEFC5010E9416
S1130740C3044C01F32DF0683F2E820133FC1BC01F
S1130750822D90E088169906B0F4B60180E290E00C
S11307600E94D9042A94F4CFF50137FC859137FE11
S113077081915F01B60190E00E94D90421102A946E
S113078021E0821A91088114910471F7E8C084363B
S113079011F0893641F5F80137FE07C06081718197
S11307A0828193810C5F1F4F08C060817181072E85
S11307B0000C880B990B0E5F1F4FF32DFF763F2E15
S11307C097FF09C090958095709561957F4F8F4FE5
S11307D09F4FF0683F2E2AE030E0A3010E941505E8
S11307E0882E861845C0853731F4232D2F7EB22EEE
S11307F02AE030E025C0932D997FB92E8F36C1F0C1
S113080018F4883579F0B5C0803719F0883721F0AD
S1130810B0C0E92FE061BE2EB4FE0DC0FB2DF46024
S1130820BF2E09C034FE0AC0292F2660B22E06C08E
S113083028E030E005C020E130E002C020E132E0F1
S1130840F801B7FE07C060817181828193810C5FDA
S11308501F4F06C06081718180E090E00E5F1F4FE2
S1130860A3010E941505882E8618FB2DFF773F2EC5
S113087036FE0DC0232D2E7FA22E891458F434FE8B
S11308800BC032FC09C0832D8E7EA82E05C0B82C67
S1130890A32C03C0B82C01C0B92CA4FE0FC0FE01C8
S11308A0E80DF11D8081803321F49A2D997EA92EC3
S11308B009C0A2FE06C0B394B39404C08A2D8678FE
S11308C009F0B394A3FC11C0A0FE06C0B21488F4CE
S11308D0280C922C9B180EC0B21460F4B60180E26E
S11308E090E00E94D904B394F7CFB21418F42B18F3
S11308F002C0982C212CA4FE10C0B60180E390E025
S11309000E94D904A2FE17C0A1FC03C088E790E0AE
S113091002C088E590E0B6010CC08A2D867859F0B3
S1130920A1FE02C08BE201C080E2A7FC8DE2B60109
S113093090E00E94D904891438F4B60180E390E071
S11309400E94D9049A94F7CF8A94F301E80DF11D1B
S11309508081B60190E00E94D9048110F5CF222055
S113096009F442CEB60180E290E00E94D9042A94B0
S1130970F6CFF6018681978102C08FEF9FEF2B9609
S1130980E2E10C94A505FC01059061507040011052
S1130990D8F7809590958E0F9F1F0895FC016150A4
S11309A0704001900110D8F7809590958E0F9F1F8D
S11309B008950F931F93CF93DF93FB01238121FDB0
S11309C003C08FEF9FEF2CC022FF16C046815781D2
S11309D0248135814217530744F4A081B1819D01DC
S11309E02F5F3F4F318320838C93268137812F5F84
S11309F03F4F3783268314C08B01EC01FB01008435
S1130A00F185E02D0995892BE1F6D80116968D9193
S1130A109C911797019617969C938E931697CE01E7
S1130A20DF91CF911F910F910895FA01AA272830E1
S1130A3051F1203181F1E8946F936E7F6E5F7F4FA7
S1130A408F4F9F4FAF4FB1E03ED0B4E03CD0670F23
S1130A50781F891F9A1FA11D680F791F8A1F911D76
S1130A60A11D6A0F711D811D911DA11D20D009F4C6
S1130A7068943F912AE0269F11243019305D319308
S1130A80DEF6CF010895462F4770405D4193B3E0F1
S1130A900FD0C9F7F6CF462F4F70405D4A3318F098
S1130AA0495D31FD4052419302D0A9F7EACFB4E049
S1130AB0A6959795879577956795BA95C9F7009701
S1130AC06105710508959B01AC010A2E06945795A2
S1130AD0479537952795BA95C9F7620F731F841FF9
S1130AE0951FA01D0895A8E1B0E042E050E00C94E9
S1130AF07B05DC01CB01FC01F999FECF06C0F2BDF8
S1130B00E1BDF89A319600B40D9241505040B8F7C7
S1130B1008952F923F924F925F926F927F928F929D
S1130B209F92AF92BF92CF92DF92EF92FF920F9378
S1130B301F93CF93DF93CDB7DEB7CA1BDB0B0FB682
S1130B40F894DEBF0FBECDBF09942A88398848883F
S1130B505F846E847D848C849B84AA84B984C884D5
S1130B60DF80EE80FD800C811B81AA81B981CE0FCC
S1130B70D11D0FB6F894DEBF0FBECDBFED010895B1
S1070B80F894FFCF13
S1130B844142430030202564202564202564005418
S1130B943A25646F432C20483A25642525004C3AB1
S1130BA425642E25642525002D312025640031205B
S10D0BB42564202564202564000058
S9030000FC
