:040000000C947000EC
:100004000C9400000C9400000C9400000C9400006C
:100014000C9400000C9400000C9400000C9400005C
:100024000C9400000C9400000C9400000C9400004C
:100034000C9400000C9400000C9400000C9400003C
:100044000C9400000C9412010C9400000C94000019
:100054000C9400000C9400000C9400000C9400001C
:100064000C940000000000000000000000000000EC
:1000740000000000000000000000000000FFFFFF7F
:10008400FFFFFF002564003020256420256420251F
:100094006400543A25646F432C20483A256425258E
:1000A400004C3A25342E32662525002D3120256456
:1000B4000031202564202564202564002D4E414E06
:1000C400000001002D4E414E00494E460000020042
:1000D4000400680001001403C6000000F894EE2731
:1000E400EFBBF1E0F5BFE5BFF8E1A895A4B7A77FA2
:1000F400A4BFF0936000E09360008DE0A2E0BB2712
:10010400ED938A95E9F780E098E0A0E0B1E0ED9303
:100114000197E9F7E2EDF0E085919591009761F0A0
:10012400A591B59105901590BF01F00105900D9230
:100134000197E1F7FB01F0CFE0E0EEBBEFEFEDBF9D
:10014400E8E0EEBFC0E0D3E00C947402E0917C00E0
:10015400E064E0937C00E0917A00E768E0937A0041
:100164000895AA93E0917C00E07FAE2FE881EF70C0
:10017400EA2BE0937C00E0917A00E064E0937A005B
:10018400E0917A00E074E1F7E0917800F0E0DF01BB
:10019400E0917900F0E0E370F070FE2FE0E0EA0F08
:1001A400FB1F8DC0BA93AA93E981E093C500E8814F
:1001B400E093C400E8E9E093C100E6E0E093C20004
:1001C40022960895BA93AA931A930A9300E010E032
:1001D400F801AA81BB81AE0FBF1FEC91E03079F02A
:1001E400E091C000E072E1F3F801AA81BB81AE0F97
:1001F400BF1FEC91E093C6000F5F1F4FE9CFE09162
:10020400C000E072E1F3EAE0E093C600E091C000D0
:10021400E072E1F3EDE0E093C60019810881CDC0FE
:100224000A921A929A93AA93BA93EA93FA93EFB71B
:10023400EA93E52DF0E03196DF01E4E1F0E00E947D
:100244004D0F5E2EA52DB0E0A050BD4FE091C6002D
:10025400EC93E52DF0E0E050FD4FA081A53611F4BC
:10026400E1E04E2EE991EFBFF991E991B991A9919D
:100274009991199009901895AA93EBB1EF70AE2F4C
:10028400E881E07FEA2BEBB95A985B9A84E08A957F
:10029400F1F75B9889E292E00197F1F7EBB1EF7027
:1002A400AE2FE881E295E07FEA2BEBB95B9A84E01C
:1002B4008A95F1F75B98A2E0B0E00E94EF0C2196DA
:1002C4000895EFEFEAB9A4E1B0E00E94EF0CA2E0D8
:1002D400D3DFA8E2D1DFACE0CFDFA6E0CDDFA1E041
:1002E400CBDFA0E8C9DFA2E0B0E00E94EF0C0895E4
:1002F400A1E0C2DFA2E0B0E00E94EF0CA0E8BCDF06
:100304000895BA93AA931A930A9300E010E0F801AF
:10031400AA81BB81AE0FBF1FEC91E03079F1EBB144
:10032400EF700E2EF801AA81BB81AE0FBF1FEC91B6
:10033400E07FE029EBB95A9A5B9A84E08A95F1F759
:100344005B9889E292E00197F1F7EBB1EF700E2E22
:10035400F801AA81BB81AE0FBF1FEC91E295E07F4B
:10036400E029EBB95B9A84E08A95F1F75B98A2E007
:10037400B0E00E94EF0C0F5F1F4FC9CF19810881B5
:100384001CC0BA93AA93AB81A03019F4AA81A031FE
:1003940008F004C0EA81EF70E0680AC0AB81A130C4
:1003A40019F4AA81A03108F005C0EA81EF70E06C6D
:1003B400AE2F62DFA881B981A4DF24960895BA9391
:1003C400AA9325970E94CF0F219A299AA4E6B0E018
:1003D4000E94EF0C2998A2E1B0E00E94EF0C299A48
:1003E400219883E98A95F1F7199B03C0EFEFFFEF9A
:1003F40075C08DED90E00197F1F7199903C0EEEF08
:10040400FFEF6CC08DED90E00197F1F710E015302F
:10041400E0F52197E0E0E88300E0083058F530E0AB
:1004240019990BC03F5F393C20F0EDEFFFEF2196A7
:1004340055C084E08A95F1F7F3CF8FE68A95F1F7FA
:10044400199B08C0E7E0E01BA1E00E94B70EA88159
:10045400EA2BE88330E0199B0BC03F5F393C20F066
:10046400EDEFFFEF21963AC084E08A95F1F7F3CFE0
:100474000F5FD3CFE12FF0E0DE011596EA0FFB1FEB
:10048400A881A08321961F5FC2CF219A299AA4E64E
:10049400B0E00E94EF0CAC81BB27ED81F0E0AE0F21
:1004A400BF1FEE81F0E0AE0FBF1FEF81F0E0EA0F57
:1004B400FB1FAE2FE885EA1779F4EE81AB85BC8586
:1004C400F0E0ED93FC93EC81A985BA85F0E0ED931F
:1004D400FC93E0E0F0E002C0ECEFFFEF0E94D60FE7
:1004E4002D960895E9978DE1AAE1B0E0EAE6F0E0FF
:1004F4000E94DB0F78942ADEA7E4B0E053DEE1DE4D
:10050400E4B1EC61E4B9A0E0B0E00E94A00FEDAB6F
:10051400FEABA2E0B0E00E94A00FEBABFCABA4E00A
:10052400B0E00E94A00FE9ABFAABEA8DEF5FEA8F6F
:10053400442009F4C5C04424E0E0E8ABA8A9A431F0
:1005440058F4E8A9F0E0E050FD4FA081A33721F072
:10055400E8A9EF5FE8ABF2CFA8A9A43109F4B0C0D1
:10056400E8A9F0E03196DF01E4E1F0E00E944D0FEC
:10057400EFA7FE017B96FA93EA93E0E0EA93A4E105
:10058400B0E00E94180BE8A9AFA5EA1751F1EFA556
:10059400F0E0E050FD4FA081A53619F1AFA5BB27CF
:1005A400E8A9F0E00E94990FEA1BFB0B7496DF01A7
:1005B400E4E1F0E00E944D0F3197DE015B96AE0F4F
:1005C400BF1FEFA5F0E0E050FD4FE081EC93EFA5F5
:1005D400F0E03196DF01E4E1F0E00E944D0FEFA777
:1005E400D2CFE8A9AFA5EA1709F46AC0E0E0E8AB06
:1005F400FE017B96FA93EA93A0E20E944E0BE88FE9
:10060400F98F3196FA93EA93E8E8F0E0FA93EA93E3
:10061400FE01F596662777270E94890F84E00E94E1
:10062400E50A2896A88DB98DE0E0EC93FE017B964F
:10063400FA93EA93A0E20E944E0BE88FF98F319669
:10064400FA93EA93E8E8F0E0FA93EA93FE01F79666
:10065400662777270E94890F84E00E94E50A28967E
:10066400A88DB98DE0E0EC93FE017B96FA93EA93B2
:10067400A0E20E944E0BE88FF98F3196FA93EA9329
:10068400E8E8F0E0FA93EA93FE01F9966627772703
:100694000E94890F84E00E94E50A2896EDA9FEA92C
:1006A400A0E0B0E00E94B00FEBA9FCA9A2E0B0E08A
:1006B4000E94B00FE9A9FAA9A4E0B0E00E94B00F2B
:1006C400AA8DBB27EAE0F0E00E944D0F309709F0B5
:1006D4008DC0A6E046DDEFABF8AFEDB7FEB73197BE
:1006E400FA93EA931F930F93ADB7BEB711973F9355
:1006F4002F9365DE2F913F910F911F91AF0130979A
:1007040009F062C0FE01FA93EA93EBE8F0E0FA9391
:10071400EA93F8010E94C50E0E94890FF9010E9414
:10072400C50E0E94890FFE01ED5BFF4F0190F08121
:10073400E02D0E94C50E0E94890F8CE00E94D10812
:100744006096DE013FDDD4DDFE01FA93EA93E6E92B
:10075400F0E0FA93EA93F8010E94C50E0E94890F13
:10076400F9010E94C50E0E94890F88E00E94D108F9
:100774002C96DE01C6DDFE01FA93EA93E5EAF0E089
:10078400FA93EA93EBADFCAD0E94C50E0E94650D91
:10079400A0E0B0E088EC92E40E94EF0DDF01CB0111
:1007A400E0E0F0E060E874E40E943D0E0E94890FEE
:1007B40084E00E94D1082896E1E0EA93E0E0EA931D
:1007C400DE011296DEDD12C0FE01FA93EA93EFEA2F
:1007D400F0E0FA93EA93FA010E94C50E0E94890F91
:1007E40084E00E94D1082896DE01ECDCAA8DA733B0
:1007F40008F1E0E0EA8FFE01FA93EA93E5EBF0E01A
:10080400FA93EA93E9ADFAAD0E94C50E0E94890FEE
:10081400EBADFCAD0E94C50E0E94890FEDADFEAD9F
:100824000E94C50E0E94890F8CE00E94D108609638
:10083400DE01C8DCF801ADA9BEA90E94CA0EE030F1
:1008440011F42A9801C02A9AF901ABA9BCA90E9403
:10085400CA0EE03011F42B9801C02B9AEFA9F8AD21
:10086400A9A9BAA90E94D00EE03011F42C9801C0B5
:100874002C9AA4E6B0E00E94EF0C57CEFFCFBA93B7
:10088400AA931A930A93AA81BB8112960E946B0FB2
:10089400309759F1AA81BB8114960E946B0F8F0186
:1008A400309761F00230E0E01E0798F0F8013197CC
:1008B4008F01AA81BB811496ED93FC93AA81BB811D
:1008C4001296ED91FD913196FE93EE933197AC81A2
:1008D400A083AA81BB810E946B0FFF232AF0ED91B4
:1008E400FD913196FE93EE9306C0AA81BB81EFEF92
:1008F400FFEFED93FC93198108810C94260BBA93B6
:10090400AA932497E0E0E883E983E0E8EA83EFE34D
:10091400EB830E94CF0FEE85FF85EF3FAFEFFA0721
:1009240049F4E885F985FA93EA93A0ECB0E00E94D3
:10093400280B44C1EF3FAFE7FA0749F4E885F9858E
:10094400FA93EA93A1ECB0E00E94280B37C1AB857F
:10095400A73010F0E6E0EB871B85E12F1150E03063
:1009640079F0AC81BD818E819F81E0E0F0E060E2AE
:1009740071E40E94EF0DEC83FD836E837F83EDCFE2
:10098400EC85FD856E857F850E94C90F81F430E07A
:10099400AC81BD818E819F81E0E0F0E060E271E492
:1009A4000E94EF0DEC83FD836E837F837DC03B85C6
:1009B400EC81FD816E817F81AC85BD858E859F85AF
:1009C4000E94820E09F008F426C0AC81BD818E819C
:1009D4009F81E0E0F0E060E271E40E94EF0DEC83BF
:1009E400FD836E837F83EC81FD816E817F81AC8585
:1009F400BD858E859F850E94820E60F0EDECFCEC37
:100A04006CEC7DE30E94EF0DEC87FD876E877F879A
:100A14003F5FE9CF25C0EC81FD816E817F81AC858C
:100A2400BD858E859F850E94820E60F4E0E0F0E033
:100A340060E271E40E94EF0DEC87FD876E877F878B
:100A44003150E9CFAC81BD818E819F81E0E0F0E03F
:100A540060E271E40E94EF0DEC83FD836E837F837B
:100A6400EC85FD856E857F85A0E0B0E080E09FE3A6
:100A74000E949F0DEC87FD876E877F87EC81FD8147
:100A84006E817F81AC85BD858E859F850E94820E97
:100A940058F0EDECFCEC6CEC7DE30E94EF0DEC8780
:100AA400FD876E877F873F5F10E0EB85E11708F4D1
:100AB4004FC0AC81BD818E819F81EDECFCEC6CEC70
:100AC4007DE30E94EF0DA0E0B0E080E09FE30E9490
:100AD4009F0DDF01CB010E94B00BEC83FD836E837D
:100AE4007F83AC85BD858E859F850E943D0E0E94C7
:100AF4002C0D0E2FA885B9851196A887B987119753
:100B0400E05DEC93E02FFF27662777270E94650DB1
:100B1400AC81BD818E819F810E94EF0DAC85BD8526
:100B24008E859F850E94930F0E94980DEC87FD8708
:100B34006E877F87E12F1F5FE03009F0B6CFA8856D
:100B4400B9851196A887B9871197EEE2EC93ADCFDA
:100B5400E885F9853196E887F9873197AA85A083D6
:100B640030302CF43195A885B985EDE203C0A88511
:100B7400B985EBE2EC93E885F9853196E887F98746
:100B84003196E887F9873197BF01A32FEAE00E94E5
:100B9400040FE05DDB01EC93E885F9853196E88785
:100BA400F9873197BF01A32FEAE00E94410FE05D6E
:100BB400DB01EC93A885B985E0E0EC930E94D60FA5
:100BC40060960895BA93AA93EF9761970E94CD0F08
:100BD40010E0FE01E85AFF4F0190F081E02DE88714
:100BE400F987FE01EA5AFF4F0190F081E02DEE8370
:100BF400FF83AE81BF81E0E0F0E0ED93FC93DE0182
:100C0400A45ABF4FED91FD913196FE93EE93319727
:100C1400E4912E2FE03009F4B9C2E12FE03059F409
:100C2400253211F411E006C02A93AF81B885E98515
:100C3400FA850995AAC2E130E1F4253239F42A9300
:100C4400AF81B885E985FA8509959EC212E0E0E096
:100C5400ED8B00E02D3211F401E097C22B3219F430
:100C6400EBE2ED8B92C2203219F4E0E2ED8B8DC2FF
:100C740002C0E23039F450E013E0203311F400688C
:100C840084C202C0E33091F4203310F02A3308F018
:100C940007C0AAE05A9F502DE22FE0535E0F75C2A1
:100CA40040E02E3211F414E070C20FC0E43099F425
:100CB400203310F02A3308F008C00062AAE04A9FEB
:100CC400402DE22FE0534E0F60C22C3619F402601F
:100CD40015E05BC203C0E53009F057C2E22FE336EA
:100CE400A1F4FE01E65AFF4F0190F081E02D349704
:100CF400DE01A65ABF4FED93FC93A481AA93AF8162
:100D0400B885E985FA8509953FC2E53411F0E536E1
:100D140009F403C0E63609F068C0FE017696EE8752
:100D2400FF87DE01A65ABF4F0D90BC91A02D0E94F3
:100D34006F0FEA87FB876C877D87FE01E65AFF4FBA
:100D44000190F081E02D3497DE01A65ABF4FED9358
:100D5400FC93AD85AA2332F0AD89AB3279F0A03291
:100D6400B9F01EC0EA85FB856C857D850E94F90C6F
:100D7400EA87FB876C877D87EDE2ED8B07FF08C070
:100D8400ED89EA93AF81B885E985FA85099508C0AC
:100D9400EE85FF853196EE87FF873197AD89A08375
:100DA40005FF46E0263661F4EA85FB856C857D8582
:100DB4000E94890F4A93AB89BC890E94C70B0BC060
:100DC400EA85FB856C857D850E94890F4A932A9369
:100DD400AC89BD8994DDFE017696EE87FF87AE85EA
:100DE400BF850E94350B1E2F45C0E337E9F4FE0191
:100DF400E65AFF4F0190F081E02D3497DE01A65AA8
:100E0400BF4FED93FC93DE01A65ABF4F0D90BC91EA
:100E1400A02D14960E946B0FEE87FF87AE85BF85C9
:100E24000E94350B1E2F1FC0E03749F5FE01E65A1C
:100E3400FF4F0190F081E02D3497DE01A65ABF4F99
:100E4400ED93FC93DE01A65ABF4F0D90BC91A02DEB
:100E540014960E946B0FEE87FF87AE85BF850E94B4
:100E6400410B1E2F08600F77403011F0411708F036
:100E740001C0142F40E0E0E0EC8B30E0A9C0E43680
:100E840011F0E93611F4046002C0E537C1F4EAE078
:100E9400EC8B01FF0AC0E0E0FAEC6AE97BE3E88B43
:100EA400F98B6A8B7B8B1AE028C0E0E1F7E260E003
:100EB40070E0E88BF98B6A8B7B8B15E01EC0E835FC
:100EC40011F4086003C0E83709F05EC1E0E1EC8B7F
:100ED40001FF0AC0E0E0F0E060E070E1E88BF98B2C
:100EE4006A8B7B8B18E009C0E0E0F0E160E070E021
:100EF400E88BF98B6A8B7B8B14E0403011F00F7711
:100F040001C041E001FF16C0FE01E65AFF4F019007
:100F1400F081E02D3497DE01A65ABF4FED93FC9388
:100F2400DE01A65ABF4F0D90BC91A02D14960E94CD
:100F34006F0F31C002FF18C0FE01E65AFF4F019047
:100F4400F081E02D3497DE01A65ABF4FED93FC9358
:100F5400DE01A65ABF4F0D90BC91A02D14960E949D
:100F64006B0F0E94C50E17C0FE01E65AFF4F019099
:100F7400F081E02D3497DE01A65ABF4FED93FC9328
:100F8400DE01A65ABF4F0D90BC91A02D14960E946D
:100F94006B0F66277727EA87FB876C877D8702FFBD
:100FA40016C0AD85AA2362F4EA85FB856C857D8530
:100FB4000E94AF0EEA87FB876C877D87EDE2ED8B9D
:100FC400ED89E03019F01F5F4F5F01C00B7F342FB4
:100FD40000FD18C0151710F4351708F013C007FFEB
:100FE40008C002FF04C00B7F2D89115001C020E30B
:100FF40001C020E22A93AF81B885E985FA85099575
:101004005150E8CF141720F5006102FF15C00B7F83
:10101400ED89EA93DE01A95ABF4F0D90BC91A02D32
:10102400FE01E75AFF4F0190F081E02D0995503001
:1010340009F0515011504150E0E3EA93AF81B88573
:10104400E985FA850995503009F051504150DACFBD
:10105400312FEC89E030D9F43030C1F003FF06C001
:10106400EE85FF852591EE87FF8705C0AE85BF8598
:101074002D91AE87BF872A93AF81B885E985FA851C
:101084000995503009F051503150E6CF70C0E889CD
:10109400F9896A897B89AA85BB858C859D850E948F
:1010A4001C0F2E2F2A3030F003FF02C0295C01C030
:1010B400295A01C0205D04FD30C0213360F4A889A1
:1010C400B9898A899B89A130E0E0BE07E0E08E07F8
:1010D400E0E09E0709F40BC0431740F4531710F0E7
:1010E40000FF01C023C020E207FF17C020E3006116
:1010F40002FF13C00B7FED89EA93DE01A95ABF4FAB
:101104000D90BC91A02DFE01E75AFF4F0190F08194
:10111400E02D0995503009F051502A93AF81B885DC
:10112400E985FA850995503009F051503150E88924
:10113400F9896A897B89AA85BB858C859D850E94EE
:101144005B0FEA87FB876C877D87EC89A889B9895F
:101154008A899B89FF27662777270E941C0FE88BC3
:10116400F98B6A8B7B8B0E94C90F09F090CF00FF2B
:101174000BC0503049F05150E0E2EA93AF81B8859A
:10118400E985FA850995F5CF10E039CDAE81BF81A7
:101194000E946B0F0E94D40FEF966F960895FF92F2
:1011A400F82E26970E94CF0FDE011C960E94A20EF5
:1011B4000E946B0F309719F4EFEFFFEF27C0DE01A9
:1011C40016960E94A20E8D01DE011C960E94A20EAC
:1011D4000E946B0FEE83FF83E0E0E887E987DE017E
:1011E4001A960E94A20E0E946B0FFA93EA931A9326
:1011F4000A93E1E4F4E0FA93EA93DE011A96E2DC5E
:101204009F01AE81BF81E0E0EC93F9010E94D60F0B
:101214002A96FF900895BA93AA931A93A981BA8142
:10122400E0E0EC93AB81BC81EC911E2FE03019F02F
:10123400E0E0EC9319C0A981BA8111960E946B0F6A
:10124400309789F0E981FA81A181B281EC911E2F56
:10125400E03041F0A981BA811196ED91FD9131966A
:10126400FE93EE9301C010E0E12F1881EDC1FF92CF
:10127400BA93AA9326970E94CD0FE0E0F0E0EA87A4
:10128400FB874E2FEA89FB893196EA8BFB8B3197DA
:10129400E4913E2FE03009F48FC1A32F0E94650B27
:1012A400E030F9F0EDB7FEB7FA93EA934F93AE85C9
:1012B400BF85E889F98909954F913E2FE03029F0DF
:1012C400A32F0E94650BE03009F409C0AC85BD85ED
:1012D400AC91A0301CF4EFEFFFEF70C1E3CF432FCC
:1012E4006AC1353209F04AC150E0EA89FB89359177
:1012F400EA8BFB8B303310F03A3308F007C0AAE0D6
:101304005A9F502DE32FE0535E0FEFCF303009F496
:1013140053C1EDB7FEB7FA93EA934F93AE85BF85F9
:10132400E889F98909954F912E2FAE2F0E94650BFC
:10133400E03049F0AC85BD85AC91A0301CF4EFEFF2
:10134400FFEF3CC1E6CF203009F42DC1422F5030CD
:1013540009F45FEFE894F3F8E32FE33601F5E88945
:10136400F9893497E88BF98BA889B98914960D917A
:101374001C91EDB7FEB7FA93EA934F93AE85BF8500
:10138400E889F98909954F91D801EC93AC85BD851D
:10139400AC91A0301CF4EFEFFFEF10C1E9C0E337CC
:1013A400B9F5E889F9893497E88BF98BA889B98963
:1013B40014960D911C91E52F5150E03029F1EDB7B1
:1013C400FEB7FA93EA934F93AE85BF85E889F9890E
:1013D40009954F913E2FE03029F0A32F0E94650B11
:1013E400E03049F0AC85BD85AC91A0301CF4EFEF42
:1013F400FFEFE4C009C01F930F930F5F1F4FE32F4C
:10140400AF91BF91EC93D7CFD801E0E0EC93B0C09B
:10141400EC3639F46894F3F8EA89FB893591EA8B60
:10142400FB8B6894F1F8E894F2F8E32FE43611F0BA
:10143400E93619F4E894F1F802C0E53711F42AE02A
:1014440008C0E83711F420E104C0E53209F496C07D
:10145400B3C0E0E0EE83EF83E887E9876894F0F8AF
:10146400E52F5150E03009F454C0EDB7FEB7FA93BC
:10147400EA934F93AE85BF85E889F98909954F9121
:101484003E2FE13248F4AC85BD85AC91A0301CF40C
:10149400EFEFFFEF93C017C0F1FC08C06894F1F8B8
:1014A4003D3211F4F2F8DCCF3B32D1F2203131F489
:1014B400A32F0E94700BE03031F009C0A32F0E94CB
:1014C4005C0BE03021F4F0FC77C0432F22C03136AE
:1014D40010F0375505C0313410F0375301C0305384
:1014E400E22FAE81BF8188859985FF2766277727FC
:1014F4000E94D60EDF01CB01E32FFF276627772753
:101504000E94A60EEE83FF8368877987E894F0F83B
:10151400A7CFF2FE0AC0EE81FF81688579850E941B
:10152400AF0EEE83FF8368877987F3FE12C0E889E4
:10153400F9893497E88BF98BA889B98914960D91A8
:101544001C91EE81FF8168857985D8010E94750F11
:101554000FC0E889F9893497E88BF98BA889B98990
:1015640014960D911C91EE81FF81D801ED93FC93AB
:10157400EA85FB853196EA87FB871DC0EDB7FEB788
:10158400FA93EA934F93AE85BF85E889F989099563
:101594004F91E31781F0AC85BD85AC91A0301CF46C
:1015A400EFEFFFEF0BC0EA85FB85309719F4EFEFFF
:1015B400FFEF04C001C066CEEA85FB850E94D40F0C
:1015C4006496FF900895FF92F82E23971A930A9336
:1015D400DE0117960E94A20E0E946B0F309719F439
:1015E400EFEFFFEF1EC0DE0111960E94A20E8D01E7
:1015F400DE0117960E94A20E0E946B0FEB83FC8300
:10160400DE0115960E94A20E0E946B0FFA93EA93D4
:101614001A930A93EDE0F9E0FA93EA93DE0118963F
:1016240026DE198108812596FF900895BA93AA931E
:10163400B981A881109631F0FC81EB816A816193B4
:101644001197E9F7EB81FC8125960895BA93AA9343
:10165400E991F991A991B991CD0105900D920020DC
:10166400E1F7FC010895BA93AA93A991B991EE27E1
:10167400FF276D91662311F03196FBCF0895BA933D
:10168400AA93AA27BB27E991F9910590002011F0AC
:101694001196FBCFFD010895AA936991A991B9917F
:1016A400EE27FF277C91671709F4FD011196772334
:1016B400C9F70895AA93E1E0F991F03310F0FA33F1
:1016C40008F0EE270895AA93E1E0F991F03229F0A9
:1016D400F93010F0FE3008F0EE270895AA93E1E007
:1016E400F991F05340F0FA3038F0FF75F750FA30C2
:1016F40010F0F03108F0EE2708950E948E0F7B81E0
:101704006A81F981E88177FB770F67FD7160972F14
:101714009E5781F078F0983190F4AA27BB27882748
:1017240008948795B795A7959A95D1F7EA23FB2353
:10173400682305C0E8947727EE27FF2766276F778D
:10174400769508F4606877F9A991B991899199918E
:10175400EA17FB076807790797FB08950E948E0F25
:101764000E947F0F0E947F0B0E94840F19F40E9435
:101774007A0F09C0E6F70E947A0FA0E0B0E080E893
:101784009FE30E94980D24960895BA93AA932497F0
:10179400E0E0E883E983EA83EFE3EB831A930A93B7
:1017A400EB85FC85EF3FAFEFFA0749F4EE81FF814B
:1017B400FA93EA93A8ECB0E00E94280B0AC1EF3F29
:1017C400AFE7FA0749F4EE81FF81FA93EA93A9ECB3
:1017D400B0E00E94280BFDC0AC85AA2392F4E985F1
:1017E400FA856B857C850E94F90CE987FA876B87FB
:1017F4007C87AE81BF811196AE83BF831197EDE2E2
:10180400EC93A885A73010F0E6E0E8871885E12F6F
:101814001150E03079F0AA81BB818C819D81EDEC7F
:10182400FCEC6CEC7DE30E94EF0DEA83FB836C839C
:101834007D83EDCFEA81FB816C817D81A985BA85A9
:101844008B859C850E949F0DE987FA876B877C872F
:1018540010E0E0E0F0E060E87FE3EA83FB836C8380
:101864007D83EA81FB816C817D81A985BA858B8525
:101874009C850E94820ED8F0AA81BB818C819D81B7
:10188400E0E0F0E060E271E40E94EF0DEA83FB83A4
:101894006C837D831F5F173248F0EE81FF81FA93DA
:1018A400EA93ADECB0E00E94280B93C0DACF10307D
:1018B40049F4AE81BF811196AE83BF831197E0E3F3
:1018C400EC9347C0E12F1150E03009F442C0AA81E3
:1018D400BB818C819D81EDECFCEC6CEC7DE30E9482
:1018E400EF0DA0E0B0E080E09FE30E949F0DDF01D8
:1018F400CB010E94B00BEA83FB836C837D83A985B3
:10190400BA858B859C850E943D0E0E942C0D0E2F5E
:10191400AE81BF811196AE83BF831197E05DEC93D6
:10192400E02FF0E0AA81BB818C819D810E94C50ECD
:101934000E94650D0E94EF0DA985BA858B859C8553
:101944000E94930F0E94980DE987FA876B877C8722
:10195400B9CFE885E030C9F1AE81BF811196AE837D
:10196400BF831197EEE2EC93E885E150E887EF5FDF
:1019740061F1A985BA858B859C85E0E0F0E060E2A1
:1019840071E40E94EF0DE987FA876B877C870E94D8
:101994002C0D0E2FAE81BF811196AE83BF8311979C
:1019A400E05DEC93E02FF0E0A985BA858B859C85FA
:1019B4000E94C50E0E94650D0E94930F0E94980D0F
:1019C400E987FA876B877C87CFCFAE81BF81E0E060
:1019D400EC93198108812D960895109639F08DECB9
:1019E4009AE00197F1F7A8951197C9F708953097F0
:1019F4006040704009F070580895552342F45038FF
:101A040011F4E0FF04C03196691F791F6BF050E8B0
:101A1400572711F45F93CFC05F3F31F0660F000C7E
:101A240057956795752F08955F9300200AF0CFC0EE
:101A3400C8C050E8192E1522880F991F9527550FF5
:101A4400879550E8072E0522660F771F7527550FD7
:101A540067950895689401C0E8945F93F2DF703845
:101A640018F07F3F08F4A7C056E1571BAAF451951C
:101A740058300EF4593030F0EFEFFFEF6FEF7FE79F
:101A840077F91AC077275523B9F0EE0FFF1F661FA9
:101A9400771F5A95D1F710C07727583028F0EF2FC9
:101AA400F62F672F5850F9CF552331F07695679567
:101AB400F795E7955A95D1F700200AF44ED15F9136
:101AC4000895689401C0E894309760407040B1F084
:101AD400002426F0772312F400943FD1172E7EE1E0
:101AE400112032F07A95EE0FFF1F661F111CF9CFFB
:101AF400EF2FF62F612D5F938ADF5F9108954F9347
:101B0400AF01FD01DA01AB01BC01CA01402D012C7A
:101B1400142E4F910895EA0FFB1F681F0895E09556
:101B2400F0956095EF5FFF4F6F4F08955F9381DFEE
:101B3400903871F150E8152604C05F937ADF90382D
:101B440039F1703821F1572F591B2BF112F4D7DFDB
:101B5400FACF583118F0AA27BB278827583028F025
:101B6400AB2FB82F88275850F9CF552329F08695E5
:101B7400B795A7955A95D9F7502D512572F0CBDF1B
:101B840038F46795F795E795739513F420C0B7DF9C
:101B94003EDF5F910895D8F7FBCFEA1BFB0B680B80
:101BA40051F010F40094BBDF662392F3EE0FFF1F95
:101BB400661F7A95CBF7EE27FF27662777275F9175
:101BC4000895EFEFFFEF6FE77FEF5F910895EFEF79
:101BD400FFEF6FE77FE75F9108955F932ADF703827
:101BE40051F3903841F301240894791F23F41CF332
:101BF40000203AF3ECCF0F921F932F933F934F9310
:101C0400112722279927689FA0018F9F302D410D0E
:101C1400591F6B9F300D411D591F8E9F27D0BF9FA9
:101C240025D06A9F23D0BE9F1DD0AF9F1BD0AE9FEF
:101C3400110D291F391F491F591FE32FF42F652F39
:101C4400522F4F913F912F911F910F9066232AF0AD
:101C5400550FEE1FFF1F661F02C073954BF2CDDEBA
:101C64005F910895100D211D391F02C0200D311DF3
:101C7400491F591F08955F93DCDE703821F4112049
:101C84000AF49FCFA4CF903809F495CF0124089487
:101C9400970B1BF4D4F30020F3CF792F1F932F93CA
:101CA4003F934F9311241127222733274427552785
:101CB40090E2AE17BF078607410730F0AE1BBF0B9B
:101CC400860B410B089401C08894551F221F331FB3
:101CD400111CAA1FBB1F881F441F9A9551F7F901B5
:101CE400612D4F913F912F911F91662332F0550F33
:101CF400EE1FFF1F661F7A9543F27FDE5F91089502
:101D040099239AF0772342F0971748F029F4AE17F5
:101D1400BF07860720F031F098948894089598942A
:101D2400089408951894889408957723C2F7971710
:101D340098F3A9F7EA17FB07680788F399F3ECCF40
:101D44000024AF0DB01D0895EA0FFB1F681F791F13
:101D54000895F195E195F0400895F095609570959A
:101D6400E195FF4F6F4F7F4F0895EE230E2EEA2F1C
:101D740019F0EE0F0A94E9F70895FE2FFF0FFF0BF9
:101D84006F2F7F2F08956F2F660F660B762F0895A0
:101D9400AE17BF07E1E00CF0EE270895EA17FB0742
:101DA400E1E00CF0EE2708957A9F702D6B9F700D83
:101DB400F89F700DE99F700D6A9F602D710DFB9F58
:101DC400600D711DE89F600D711D8827FA9FF02D2D
:101DD400610D781FEB9FF00D611D781FEA9FE02DC8
:101DE400F10D681F781F0895002498E0AA0F001CC5
:101DF4000E1A10F40E0E01C0A1609A95B9F7EA2FDD
:101E0400A02D08955AD0F0DF0EF4E1950895002432
:101E1400112490E1AA0FBB1F001C111C0E1A1F0AEB
:101E240018F40E0E1F1E01C0A1609A9599F7FD01CA
:101E3400D00108953F934F935F93002411244427C6
:101E4400552730E2AA0FBB1F881F991F001C111CC5
:101E5400441F551F0E1A1F0A460B570B28F40E0E6B
:101E64001F1E461F571F01C0A1603A9559F7FD0177
:101E7400BC01D001CA015F914F913F910895E8944C
:101E8400A7FF02C0A1956894E7FDE195ADDFEA2FB5
:101E94000EF4E1950895E894B7FF04C0A095B095B9
:101EA40011966894F7FD55DFB2DFFD010EF451DFA2
:101EB4000895C0DFFD01BC010895E894E7FF02C066
:101EC400E1956894A7FF04C0A19500F8039400FA73
:101ED4000895ED91FC9111970895ED91FD916D9107
:101EE4007C9113970895ED93FD936D937C930895DE
:101EF400E881F9816A817B810895A881B9818A8109
:101F04009B810895E883F9836A837B8308957A9398
:101F14006A93FA93EA9308959A938A93BA93AA9345
:101F24000895182E862F612D192E972F712D1B2E93
:101F3400BF2FF12D1A2EAE2FE12D0895119602D048
:101F4400FE2F1197F999FECFFF93FFB7F894A1BD27
:101F5400B2BDF89AE0B5FFBFFF91089507D011967E
:101F6400EF93EF2F03D0EF9111970895F99B02C0DF
:101F7400A895FCCF9FB7F894A1BDB2BDF89A80B5DF
:101F8400E81719F0E0BDFA9AF99A9FBF08953097BF
:101F94006040704008955A934A933A932A931A934F
:101FA4000A9308955D814C813B812A8119810881BE
:101FB4000895AC0FBD1F05900D928A95E1F7089521
:00000001FF
